{
  "_format": "hh-sol-artifact-1",
  "contractName": "CommitRevealLottery",
  "sourceName": "contracts/CommitRevealLottery.sol",
  "abi": [
    {
      "inputs": [
        {
          "internalType": "address",
          "name": "initialOwner",
          "type": "address"
        },
        {
          "internalType": "uint256",
          "name": "_ticketPrice",
          "type": "uint256"
        },
        {
          "internalType": "uint256",
          "name": "_roundDuration",
          "type": "uint256"
        },
        {
          "internalType": "uint256",
          "name": "_revealDuration",
          "type": "uint256"
        }
      ],
      "stateMutability": "nonpayable",
      "type": "constructor"
    },
    {
      "inputs": [
        {
          "internalType": "address",
          "name": "owner",
          "type": "address"
        }
      ],
      "name": "OwnableInvalidOwner",
      "type": "error"
    },
    {
      "inputs": [
        {
          "internalType": "address",
          "name": "account",
          "type": "address"
        }
      ],
      "name": "OwnableUnauthorizedAccount",
      "type": "error"
    },
    {
      "anonymous": false,
      "inputs": [
        {
          "indexed": true,
          "internalType": "address",
          "name": "previousOwner",
          "type": "address"
        },
        {
          "indexed": true,
          "internalType": "address",
          "name": "newOwner",
          "type": "address"
        }
      ],
      "name": "OwnershipTransferred",
      "type": "event"
    },
    {
      "anonymous": false,
      "inputs": [
        {
          "indexed": true,
          "internalType": "address",
          "name": "player",
          "type": "address"
        },
        {
          "indexed": false,
          "internalType": "bytes32",
          "name": "commitment",
          "type": "bytes32"
        }
      ],
      "name": "TicketPurchased",
      "type": "event"
    },
    {
      "anonymous": false,
      "inputs": [
        {
          "indexed": true,
          "internalType": "address",
          "name": "winner",
          "type": "address"
        }
      ],
      "name": "WinnerSelected",
      "type": "event"
    },
    {
      "inputs": [
        {
          "internalType": "bytes32",
          "name": "_commitment",
          "type": "bytes32"
        }
      ],
      "name": "commit",
      "outputs": [],
      "stateMutability": "payable",
      "type": "function"
    },
    {
      "inputs": [],
      "name": "drawWinner",
      "outputs": [],
      "stateMutability": "nonpayable",
      "type": "function"
    },
    {
      "inputs": [],
      "name": "getPlayers",
      "outputs": [
        {
          "internalType": "address[]",
          "name": "",
          "type": "address[]"
        }
      ],
      "stateMutability": "view",
      "type": "function"
    },
    {
      "inputs": [],
      "name": "owner",
      "outputs": [
        {
          "internalType": "address",
          "name": "",
          "type": "address"
        }
      ],
      "stateMutability": "view",
      "type": "function"
    },
    {
      "inputs": [
        {
          "internalType": "address",
          "name": "",
          "type": "address"
        }
      ],
      "name": "playerData",
      "outputs": [
        {
          "internalType": "bytes32",
          "name": "commitment",
          "type": "bytes32"
        },
        {
          "internalType": "uint256",
          "name": "guess",
          "type": "uint256"
        },
        {
          "internalType": "bool",
          "name": "isReveal",
          "type": "bool"
        }
      ],
      "stateMutability": "view",
      "type": "function"
    },
    {
      "inputs": [],
      "name": "recentWinner",
      "outputs": [
        {
          "internalType": "address",
          "name": "",
          "type": "address"
        }
      ],
      "stateMutability": "view",
      "type": "function"
    },
    {
      "inputs": [],
      "name": "renounceOwnership",
      "outputs": [],
      "stateMutability": "nonpayable",
      "type": "function"
    },
    {
      "inputs": [
        {
          "internalType": "uint256",
          "name": "_guess",
          "type": "uint256"
        },
        {
          "internalType": "bytes32",
          "name": "_blindingFactor",
          "type": "bytes32"
        }
      ],
      "name": "reveal",
      "outputs": [],
      "stateMutability": "nonpayable",
      "type": "function"
    },
    {
      "inputs": [],
      "name": "revealEndTimestamp",
      "outputs": [
        {
          "internalType": "uint256",
          "name": "",
          "type": "uint256"
        }
      ],
      "stateMutability": "view",
      "type": "function"
    },
    {
      "inputs": [],
      "name": "roundEndTimestamp",
      "outputs": [
        {
          "internalType": "uint256",
          "name": "",
          "type": "uint256"
        }
      ],
      "stateMutability": "view",
      "type": "function"
    },
    {
      "inputs": [],
      "name": "roundStarted",
      "outputs": [
        {
          "internalType": "bool",
          "name": "",
          "type": "bool"
        }
      ],
      "stateMutability": "view",
      "type": "function"
    },
    {
      "inputs": [
        {
          "internalType": "uint256",
          "name": "_roundDuration",
          "type": "uint256"
        },
        {
          "internalType": "uint256",
          "name": "_revealDuration",
          "type": "uint256"
        }
      ],
      "name": "startNewRound",
      "outputs": [],
      "stateMutability": "nonpayable",
      "type": "function"
    },
    {
      "inputs": [],
      "name": "ticketPrice",
      "outputs": [
        {
          "internalType": "uint256",
          "name": "",
          "type": "uint256"
        }
      ],
      "stateMutability": "view",
      "type": "function"
    },
    {
      "inputs": [
        {
          "internalType": "address",
          "name": "newOwner",
          "type": "address"
        }
      ],
      "name": "transferOwnership",
      "outputs": [],
      "stateMutability": "nonpayable",
      "type": "function"
    },
    {
      "stateMutability": "payable",
      "type": "receive"
    }
  ],
  "bytecode": "0x60806040523480156200001157600080fd5b506040516200211a3803806200211a83398181016040528101906200003791906200027e565b83600073ffffffffffffffffffffffffffffffffffffffff168173ffffffffffffffffffffffffffffffffffffffff1603620000ad5760006040517f1e4fbdf7000000000000000000000000000000000000000000000000000000008152600401620000a4919062000301565b60405180910390fd5b620000be816200011560201b60201c565b50826005819055508142620000d491906200034d565b60068190555080600654620000ea91906200034d565b6007819055506001600860006101000a81548160ff0219169083151502179055505050505062000388565b60008060009054906101000a900473ffffffffffffffffffffffffffffffffffffffff169050816000806101000a81548173ffffffffffffffffffffffffffffffffffffffff021916908373ffffffffffffffffffffffffffffffffffffffff1602179055508173ffffffffffffffffffffffffffffffffffffffff168173ffffffffffffffffffffffffffffffffffffffff167f8be0079c531659141344cd1fd0a4f28419497f9722a3daafe3b4186f6b6457e060405160405180910390a35050565b600080fd5b600073ffffffffffffffffffffffffffffffffffffffff82169050919050565b60006200020b82620001de565b9050919050565b6200021d81620001fe565b81146200022957600080fd5b50565b6000815190506200023d8162000212565b92915050565b6000819050919050565b620002588162000243565b81146200026457600080fd5b50565b60008151905062000278816200024d565b92915050565b600080600080608085870312156200029b576200029a620001d9565b5b6000620002ab878288016200022c565b9450506020620002be8782880162000267565b9350506040620002d18782880162000267565b9250506060620002e48782880162000267565b91505092959194509250565b620002fb81620001fe565b82525050565b6000602082019050620003186000830184620002f0565b92915050565b7f4e487b7100000000000000000000000000000000000000000000000000000000600052601160045260246000fd5b60006200035a8262000243565b9150620003678362000243565b92508282019050808211156200038257620003816200031e565b5b92915050565b611d8280620003986000396000f3fe6080604052600436106100e15760003560e01c80638da5cb5b1161007f578063bcff337611610059578063bcff337614610283578063d2780c12146102ae578063f14fcbc8146102d9578063f2fde38b146102f5576100e8565b80638da5cb5b14610216578063945af34f14610241578063b2185bb11461026c576100e8565b8063424aeded116100bb578063424aeded1461016a5780634f8c70cf146101a9578063715018a6146101d45780638b5b9ccc146101eb576100e8565b8063040ae259146100ed5780631209b1f6146101165780634036778f14610141576100e8565b366100e857005b600080fd5b3480156100f957600080fd5b50610114600480360381019061010f91906112db565b61031e565b005b34801561012257600080fd5b5061012b6103bb565b604051610138919061132a565b60405180910390f35b34801561014d57600080fd5b506101686004803603810190610163919061137b565b6103c1565b005b34801561017657600080fd5b50610191600480360381019061018c9190611419565b610672565b6040516101a093929190611470565b60405180910390f35b3480156101b557600080fd5b506101be6106a9565b6040516101cb91906114b6565b60405180910390f35b3480156101e057600080fd5b506101e96106cf565b005b3480156101f757600080fd5b506102006106e3565b60405161020d919061158f565b60405180910390f35b34801561022257600080fd5b5061022b6106f4565b60405161023891906114b6565b60405180910390f35b34801561024d57600080fd5b5061025661071d565b604051610263919061132a565b60405180910390f35b34801561027857600080fd5b50610281610723565b005b34801561028f57600080fd5b50610298610b66565b6040516102a5919061132a565b60405180910390f35b3480156102ba57600080fd5b506102c3610b6c565b6040516102d091906115b1565b60405180910390f35b6102f360048036038101906102ee91906115cc565b610b7f565b005b34801561030157600080fd5b5061031c60048036038101906103179190611419565b610dd8565b005b610326610e5e565b600860009054906101000a900460ff1615610376576040517f08c379a000000000000000000000000000000000000000000000000000000000815260040161036d90611656565b60405180910390fd5b814261038291906116a5565b6006819055508060065461039691906116a5565b6007819055506001600860006101000a81548160ff0219169083151502179055505050565b60055481565b600860009054906101000a900460ff16610410576040517f08c379a000000000000000000000000000000000000000000000000000000000815260040161040790611725565b60405180910390fd5b600654421015610455576040517f08c379a000000000000000000000000000000000000000000000000000000000815260040161044c906117b7565b60405180910390fd5b6007544210610499576040517f08c379a000000000000000000000000000000000000000000000000000000000815260040161049090611823565b60405180910390fd5b6000801b600360003373ffffffffffffffffffffffffffffffffffffffff1673ffffffffffffffffffffffffffffffffffffffff1681526020019081526020016000206000015403610520576040517f08c379a00000000000000000000000000000000000000000000000000000000081526004016105179061188f565b60405180910390fd5b600360003373ffffffffffffffffffffffffffffffffffffffff1673ffffffffffffffffffffffffffffffffffffffff1681526020019081526020016000206000015482826040516020016105769291906118f1565b60405160208183030381529060405280519060200120146105cc576040517f08c379a00000000000000000000000000000000000000000000000000000000081526004016105c390611969565b60405180910390fd5b81600360003373ffffffffffffffffffffffffffffffffffffffff1673ffffffffffffffffffffffffffffffffffffffff168152602001908152602001600020600101819055506001600360003373ffffffffffffffffffffffffffffffffffffffff1673ffffffffffffffffffffffffffffffffffffffff16815260200190815260200160002060020160006101000a81548160ff0219169083151502179055505050565b60036020528060005260406000206000915090508060000154908060010154908060020160009054906101000a900460ff16905083565b600460009054906101000a900473ffffffffffffffffffffffffffffffffffffffff1681565b6106d7610e5e565b6106e16000610ee5565b565b60606106ef6001610fa9565b905090565b60008060009054906101000a900473ffffffffffffffffffffffffffffffffffffffff16905090565b60065481565b61072b610e5e565b600754421015610770576040517f08c379a0000000000000000000000000000000000000000000000000000000008152600401610767906119fb565b60405180910390fd5b600061077c6001610fca565b116107bc576040517f08c379a00000000000000000000000000000000000000000000000000000000081526004016107b390611a67565b60405180910390fd5b600860009054906101000a900460ff1661080b576040517f08c379a000000000000000000000000000000000000000000000000000000000815260040161080290611725565b60405180910390fd5b60006108176001610fca565b424460405160200161082a929190611a87565b6040516020818303038152906040528051906020012060001c61084d9190611ae2565b90506000807fffffffffffffffffffffffffffffffffffffffffffffffffffffffffffffffff905060005b6108826001610fca565b81101561099257600061089f826001610fdf90919063ffffffff16565b90506000600360008373ffffffffffffffffffffffffffffffffffffffff1673ffffffffffffffffffffffffffffffffffffffff168152602001908152602001600020600101549050600360008373ffffffffffffffffffffffffffffffffffffffff1673ffffffffffffffffffffffffffffffffffffffff16815260200190815260200160002060020160009054906101000a900460ff1661094357505061097f565b600086821161095d5781876109589190611b13565b61096a565b86826109699190611b13565b5b90508481101561097b578094508295505b5050505b808061098a90611b47565b915050610878565b5081600460006101000a81548173ffffffffffffffffffffffffffffffffffffffff021916908373ffffffffffffffffffffffffffffffffffffffff1602179055508173ffffffffffffffffffffffffffffffffffffffff166108fc479081150290604051600060405180830381858888f19350505050158015610a1a573d6000803e3d6000fd5b508173ffffffffffffffffffffffffffffffffffffffff167f1d4c260f1824cd028e6c9e6e31c3a0b94f2513e7a641113ec759d382f9bdd5a160405160405180910390a260005b610a6b6001610fca565b811015610b04576000610a88826001610fdf90919063ffffffff16565b9050600360008273ffffffffffffffffffffffffffffffffffffffff1673ffffffffffffffffffffffffffffffffffffffff16815260200190815260200160002060008082016000905560018201600090556002820160006101000a81549060ff02191690555050508080610afc90611b47565b915050610a61565b505b6000610b126001610fca565b1115610b4657610b40610b3060006001610fdf90919063ffffffff16565b6001610ff990919063ffffffff16565b50610b06565b6000600860006101000a81548160ff021916908315150217905550505050565b60075481565b600860009054906101000a900460ff1681565b6005543414610bc3576040517f08c379a0000000000000000000000000000000000000000000000000000000008152600401610bba90611bdb565b60405180910390fd5b600860009054906101000a900460ff16610c12576040517f08c379a0000000000000000000000000000000000000000000000000000000008152600401610c0990611725565b60405180910390fd5b6006544210610c56576040517f08c379a0000000000000000000000000000000000000000000000000000000008152600401610c4d90611c47565b60405180910390fd5b6000801b600360003373ffffffffffffffffffffffffffffffffffffffff1673ffffffffffffffffffffffffffffffffffffffff1681526020019081526020016000206000015414610cdd576040517f08c379a0000000000000000000000000000000000000000000000000000000008152600401610cd490611cb3565b60405180910390fd5b60405180606001604052808281526020016000815260200160001515815250600360003373ffffffffffffffffffffffffffffffffffffffff1673ffffffffffffffffffffffffffffffffffffffff168152602001908152602001600020600082015181600001556020820151816001015560408201518160020160006101000a81548160ff021916908315150217905550905050610d8633600161102990919063ffffffff16565b503373ffffffffffffffffffffffffffffffffffffffff167fb88a3406200dc3d36bb684691325c24b6706e35b7fb36857ceff3fabf8bd0cf582604051610dcd9190611cd3565b60405180910390a250565b610de0610e5e565b600073ffffffffffffffffffffffffffffffffffffffff168173ffffffffffffffffffffffffffffffffffffffff1603610e525760006040517f1e4fbdf7000000000000000000000000000000000000000000000000000000008152600401610e4991906114b6565b60405180910390fd5b610e5b81610ee5565b50565b610e66611059565b73ffffffffffffffffffffffffffffffffffffffff16610e846106f4565b73ffffffffffffffffffffffffffffffffffffffff1614610ee357610ea7611059565b6040517f118cdaa7000000000000000000000000000000000000000000000000000000008152600401610eda91906114b6565b60405180910390fd5b565b60008060009054906101000a900473ffffffffffffffffffffffffffffffffffffffff169050816000806101000a81548173ffffffffffffffffffffffffffffffffffffffff021916908373ffffffffffffffffffffffffffffffffffffffff1602179055508173ffffffffffffffffffffffffffffffffffffffff168173ffffffffffffffffffffffffffffffffffffffff167f8be0079c531659141344cd1fd0a4f28419497f9722a3daafe3b4186f6b6457e060405160405180910390a35050565b60606000610fb983600001611061565b905060608190508092505050919050565b6000610fd8826000016110bd565b9050919050565b6000610fee83600001836110ce565b60001c905092915050565b6000611021836000018373ffffffffffffffffffffffffffffffffffffffff1660001b6110f9565b905092915050565b6000611051836000018373ffffffffffffffffffffffffffffffffffffffff1660001b61120d565b905092915050565b600033905090565b6060816000018054806020026020016040519081016040528092919081815260200182805480156110b157602002820191906000526020600020905b81548152602001906001019080831161109d575b50505050509050919050565b600081600001805490509050919050565b60008260000182815481106110e6576110e5611cee565b5b9060005260206000200154905092915050565b6000808360010160008481526020019081526020016000205490506000811461120157600060018261112b9190611b13565b90506000600186600001805490506111439190611b13565b90508082146111b257600086600001828154811061116457611163611cee565b5b906000526020600020015490508087600001848154811061118857611187611cee565b5b90600052602060002001819055508387600101600083815260200190815260200160002081905550505b856000018054806111c6576111c5611d1d565b5b600190038181906000526020600020016000905590558560010160008681526020019081526020016000206000905560019350505050611207565b60009150505b92915050565b6000611219838361127d565b611272578260000182908060018154018082558091505060019003906000526020600020016000909190919091505582600001805490508360010160008481526020019081526020016000208190555060019050611277565b600090505b92915050565b600080836001016000848152602001908152602001600020541415905092915050565b600080fd5b6000819050919050565b6112b8816112a5565b81146112c357600080fd5b50565b6000813590506112d5816112af565b92915050565b600080604083850312156112f2576112f16112a0565b5b6000611300858286016112c6565b9250506020611311858286016112c6565b9150509250929050565b611324816112a5565b82525050565b600060208201905061133f600083018461131b565b92915050565b6000819050919050565b61135881611345565b811461136357600080fd5b50565b6000813590506113758161134f565b92915050565b60008060408385031215611392576113916112a0565b5b60006113a0858286016112c6565b92505060206113b185828601611366565b9150509250929050565b600073ffffffffffffffffffffffffffffffffffffffff82169050919050565b60006113e6826113bb565b9050919050565b6113f6816113db565b811461140157600080fd5b50565b600081359050611413816113ed565b92915050565b60006020828403121561142f5761142e6112a0565b5b600061143d84828501611404565b91505092915050565b61144f81611345565b82525050565b60008115159050919050565b61146a81611455565b82525050565b60006060820190506114856000830186611446565b611492602083018561131b565b61149f6040830184611461565b949350505050565b6114b0816113db565b82525050565b60006020820190506114cb60008301846114a7565b92915050565b600081519050919050565b600082825260208201905092915050565b6000819050602082019050919050565b611506816113db565b82525050565b600061151883836114fd565b60208301905092915050565b6000602082019050919050565b600061153c826114d1565b61154681856114dc565b9350611551836114ed565b8060005b83811015611582578151611569888261150c565b975061157483611524565b925050600181019050611555565b5085935050505092915050565b600060208201905081810360008301526115a98184611531565b905092915050565b60006020820190506115c66000830184611461565b92915050565b6000602082840312156115e2576115e16112a0565b5b60006115f084828501611366565b91505092915050565b600082825260208201905092915050565b7f50726576696f757320726f756e64206973207374696c6c206f6e676f696e672e600082015250565b60006116406020836115f9565b915061164b8261160a565b602082019050919050565b6000602082019050818103600083015261166f81611633565b9050919050565b7f4e487b7100000000000000000000000000000000000000000000000000000000600052601160045260246000fd5b60006116b0826112a5565b91506116bb836112a5565b92508282019050808211156116d3576116d2611676565b5b92915050565b7f20526f756e64206973206e6f7420737461727465640000000000000000000000600082015250565b600061170f6015836115f9565b915061171a826116d9565b602082019050919050565b6000602082019050818103600083015261173e81611702565b9050919050565b7f5468652072657665616c20706861736520686173206e6f74207374617274656460008201527f2e00000000000000000000000000000000000000000000000000000000000000602082015250565b60006117a16021836115f9565b91506117ac82611745565b604082019050919050565b600060208201905081810360008301526117d081611794565b9050919050565b7f5468652072657665616c2070686173652068617320656e6465642e0000000000600082015250565b600061180d601b836115f9565b9150611818826117d7565b602082019050919050565b6000602082019050818103600083015261183c81611800565b9050919050565b7f4e6f20636f6d6d69746d656e7420666f756e642e000000000000000000000000600082015250565b60006118796014836115f9565b915061188482611843565b602082019050919050565b600060208201905081810360008301526118a88161186c565b9050919050565b6000819050919050565b6118ca6118c5826112a5565b6118af565b82525050565b6000819050919050565b6118eb6118e682611345565b6118d0565b82525050565b60006118fd82856118b9565b60208201915061190d82846118da565b6020820191508190509392505050565b7f496e76616c69642072657665616c2e0000000000000000000000000000000000600082015250565b6000611953600f836115f9565b915061195e8261191d565b602082019050919050565b6000602082019050818103600083015261198281611946565b9050919050565b7f5468652072657665616c207068617365206973206e6f74206f7665722079657460008201527f2e00000000000000000000000000000000000000000000000000000000000000602082015250565b60006119e56021836115f9565b91506119f082611989565b604082019050919050565b60006020820190508181036000830152611a14816119d8565b9050919050565b7f4e6f20706c617965727320696e207468652067616d652e000000000000000000600082015250565b6000611a516017836115f9565b9150611a5c82611a1b565b602082019050919050565b60006020820190508181036000830152611a8081611a44565b9050919050565b6000611a9382856118b9565b602082019150611aa382846118b9565b6020820191508190509392505050565b7f4e487b7100000000000000000000000000000000000000000000000000000000600052601260045260246000fd5b6000611aed826112a5565b9150611af8836112a5565b925082611b0857611b07611ab3565b5b828206905092915050565b6000611b1e826112a5565b9150611b29836112a5565b9250828203905081811115611b4157611b40611676565b5b92915050565b6000611b52826112a5565b91507fffffffffffffffffffffffffffffffffffffffffffffffffffffffffffffffff8203611b8457611b83611676565b5b600182019050919050565b7f496e636f7272656374207469636b65742070726963652e000000000000000000600082015250565b6000611bc56017836115f9565b9150611bd082611b8f565b602082019050919050565b60006020820190508181036000830152611bf481611bb8565b9050919050565b7f54686520636f6d6d69742070686173652068617320656e6465642e0000000000600082015250565b6000611c31601b836115f9565b9150611c3c82611bfb565b602082019050919050565b60006020820190508181036000830152611c6081611c24565b9050919050565b7f416c726561647920636f6d6d69747465642e0000000000000000000000000000600082015250565b6000611c9d6012836115f9565b9150611ca882611c67565b602082019050919050565b60006020820190508181036000830152611ccc81611c90565b9050919050565b6000602082019050611ce86000830184611446565b92915050565b7f4e487b7100000000000000000000000000000000000000000000000000000000600052603260045260246000fd5b7f4e487b7100000000000000000000000000000000000000000000000000000000600052603160045260246000fdfea26469706673582212201da11dc560ffe3e43999631c9ac1fd0ba5231696d42fdb2eb424eb1a69562b7364736f6c63430008140033",
  "linkReferences": {},
  "deployedLinkReferences": {}
}