{
  "_format": "hh-sol-artifact-1",
  "contractName": "CommitRevealLottery",
  "sourceName": "contracts/CommitRevealLottery.sol",
  "abi": [
    {
      "inputs": [
        {
          "internalType": "address",
          "name": "initialOwner",
          "type": "address"
        },
        {
          "internalType": "uint256",
          "name": "_ticketPrice",
          "type": "uint256"
        },
        {
          "internalType": "uint256",
          "name": "_roundDuration",
          "type": "uint256"
        },
        {
          "internalType": "uint256",
          "name": "_revealDuration",
          "type": "uint256"
        }
      ],
      "stateMutability": "nonpayable",
      "type": "constructor"
    },
    {
      "inputs": [
        {
          "internalType": "address",
          "name": "owner",
          "type": "address"
        }
      ],
      "name": "OwnableInvalidOwner",
      "type": "error"
    },
    {
      "inputs": [
        {
          "internalType": "address",
          "name": "account",
          "type": "address"
        }
      ],
      "name": "OwnableUnauthorizedAccount",
      "type": "error"
    },
    {
      "anonymous": false,
      "inputs": [
        {
          "indexed": true,
          "internalType": "address",
          "name": "previousOwner",
          "type": "address"
        },
        {
          "indexed": true,
          "internalType": "address",
          "name": "newOwner",
          "type": "address"
        }
      ],
      "name": "OwnershipTransferred",
      "type": "event"
    },
    {
      "anonymous": false,
      "inputs": [
        {
          "indexed": true,
          "internalType": "address",
          "name": "player",
          "type": "address"
        },
        {
          "indexed": false,
          "internalType": "bytes32",
          "name": "commitment",
          "type": "bytes32"
        }
      ],
      "name": "TicketPurchased",
      "type": "event"
    },
    {
      "anonymous": false,
      "inputs": [
        {
          "indexed": true,
          "internalType": "address",
          "name": "winner",
          "type": "address"
        }
      ],
      "name": "WinnerSelected",
      "type": "event"
    },
    {
      "inputs": [
        {
          "internalType": "bytes32",
          "name": "_commitment",
          "type": "bytes32"
        }
      ],
      "name": "commit",
      "outputs": [],
      "stateMutability": "payable",
      "type": "function"
    },
    {
      "inputs": [],
      "name": "drawWinner",
      "outputs": [],
      "stateMutability": "nonpayable",
      "type": "function"
    },
    {
      "inputs": [],
      "name": "getPlayers",
      "outputs": [
        {
          "internalType": "address[]",
          "name": "",
          "type": "address[]"
        }
      ],
      "stateMutability": "view",
      "type": "function"
    },
    {
      "inputs": [],
      "name": "owner",
      "outputs": [
        {
          "internalType": "address",
          "name": "",
          "type": "address"
        }
      ],
      "stateMutability": "view",
      "type": "function"
    },
    {
      "inputs": [
        {
          "internalType": "address",
          "name": "",
          "type": "address"
        }
      ],
      "name": "playerData",
      "outputs": [
        {
          "internalType": "bytes32",
          "name": "commitment",
          "type": "bytes32"
        },
        {
          "internalType": "uint256",
          "name": "guess",
          "type": "uint256"
        }
      ],
      "stateMutability": "view",
      "type": "function"
    },
    {
      "inputs": [],
      "name": "recentWinner",
      "outputs": [
        {
          "internalType": "address",
          "name": "",
          "type": "address"
        }
      ],
      "stateMutability": "view",
      "type": "function"
    },
    {
      "inputs": [],
      "name": "renounceOwnership",
      "outputs": [],
      "stateMutability": "nonpayable",
      "type": "function"
    },
    {
      "inputs": [
        {
          "internalType": "uint256",
          "name": "_guess",
          "type": "uint256"
        },
        {
          "internalType": "bytes32",
          "name": "_blindingFactor",
          "type": "bytes32"
        }
      ],
      "name": "reveal",
      "outputs": [],
      "stateMutability": "nonpayable",
      "type": "function"
    },
    {
      "inputs": [],
      "name": "revealEndTimestamp",
      "outputs": [
        {
          "internalType": "uint256",
          "name": "",
          "type": "uint256"
        }
      ],
      "stateMutability": "view",
      "type": "function"
    },
    {
      "inputs": [],
      "name": "roundEndTimestamp",
      "outputs": [
        {
          "internalType": "uint256",
          "name": "",
          "type": "uint256"
        }
      ],
      "stateMutability": "view",
      "type": "function"
    },
    {
      "inputs": [],
      "name": "roundStarted",
      "outputs": [
        {
          "internalType": "bool",
          "name": "",
          "type": "bool"
        }
      ],
      "stateMutability": "view",
      "type": "function"
    },
    {
      "inputs": [
        {
          "internalType": "uint256",
          "name": "_roundDuration",
          "type": "uint256"
        },
        {
          "internalType": "uint256",
          "name": "_revealDuration",
          "type": "uint256"
        }
      ],
      "name": "startNewRound",
      "outputs": [],
      "stateMutability": "nonpayable",
      "type": "function"
    },
    {
      "inputs": [],
      "name": "ticketPrice",
      "outputs": [
        {
          "internalType": "uint256",
          "name": "",
          "type": "uint256"
        }
      ],
      "stateMutability": "view",
      "type": "function"
    },
    {
      "inputs": [
        {
          "internalType": "address",
          "name": "newOwner",
          "type": "address"
        }
      ],
      "name": "transferOwnership",
      "outputs": [],
      "stateMutability": "nonpayable",
      "type": "function"
    },
    {
      "stateMutability": "payable",
      "type": "receive"
    }
  ],
  "bytecode": "0x60806040523480156200001157600080fd5b5060405162001eab38038062001eab83398181016040528101906200003791906200027e565b83600073ffffffffffffffffffffffffffffffffffffffff168173ffffffffffffffffffffffffffffffffffffffff1603620000ad5760006040517f1e4fbdf7000000000000000000000000000000000000000000000000000000008152600401620000a4919062000301565b60405180910390fd5b620000be816200011560201b60201c565b50826005819055508142620000d491906200034d565b60068190555080600654620000ea91906200034d565b6007819055506001600860006101000a81548160ff0219169083151502179055505050505062000388565b60008060009054906101000a900473ffffffffffffffffffffffffffffffffffffffff169050816000806101000a81548173ffffffffffffffffffffffffffffffffffffffff021916908373ffffffffffffffffffffffffffffffffffffffff1602179055508173ffffffffffffffffffffffffffffffffffffffff168173ffffffffffffffffffffffffffffffffffffffff167f8be0079c531659141344cd1fd0a4f28419497f9722a3daafe3b4186f6b6457e060405160405180910390a35050565b600080fd5b600073ffffffffffffffffffffffffffffffffffffffff82169050919050565b60006200020b82620001de565b9050919050565b6200021d81620001fe565b81146200022957600080fd5b50565b6000815190506200023d8162000212565b92915050565b6000819050919050565b620002588162000243565b81146200026457600080fd5b50565b60008151905062000278816200024d565b92915050565b600080600080608085870312156200029b576200029a620001d9565b5b6000620002ab878288016200022c565b9450506020620002be8782880162000267565b9350506040620002d18782880162000267565b9250506060620002e48782880162000267565b91505092959194509250565b620002fb81620001fe565b82525050565b6000602082019050620003186000830184620002f0565b92915050565b7f4e487b7100000000000000000000000000000000000000000000000000000000600052601160045260246000fd5b60006200035a8262000243565b9150620003678362000243565b92508282019050808211156200038257620003816200031e565b5b92915050565b611b1380620003986000396000f3fe6080604052600436106100e15760003560e01c80638da5cb5b1161007f578063bcff337611610059578063bcff337614610282578063d2780c12146102ad578063f14fcbc8146102d8578063f2fde38b146102f4576100e8565b80638da5cb5b14610215578063945af34f14610240578063b2185bb11461026b576100e8565b8063424aeded116100bb578063424aeded1461016a5780634f8c70cf146101a8578063715018a6146101d35780638b5b9ccc146101ea576100e8565b8063040ae259146100ed5780631209b1f6146101165780634036778f14610141576100e8565b366100e857005b600080fd5b3480156100f957600080fd5b50610114600480360381019061010f91906110e6565b61031d565b005b34801561012257600080fd5b5061012b6103ba565b6040516101389190611135565b60405180910390f35b34801561014d57600080fd5b5061016860048036038101906101639190611186565b6103c0565b005b34801561017657600080fd5b50610191600480360381019061018c9190611224565b6105c7565b60405161019f929190611260565b60405180910390f35b3480156101b457600080fd5b506101bd6105eb565b6040516101ca9190611298565b60405180910390f35b3480156101df57600080fd5b506101e8610611565b005b3480156101f657600080fd5b506101ff610625565b60405161020c9190611371565b60405180910390f35b34801561022157600080fd5b5061022a610636565b6040516102379190611298565b60405180910390f35b34801561024c57600080fd5b5061025561065f565b6040516102629190611135565b60405180910390f35b34801561027757600080fd5b50610280610665565b005b34801561028e57600080fd5b506102976109e9565b6040516102a49190611135565b60405180910390f35b3480156102b957600080fd5b506102c26109ef565b6040516102cf91906113ae565b60405180910390f35b6102f260048036038101906102ed91906113c9565b610a02565b005b34801561030057600080fd5b5061031b60048036038101906103169190611224565b610be3565b005b610325610c69565b600860009054906101000a900460ff1615610375576040517f08c379a000000000000000000000000000000000000000000000000000000000815260040161036c90611453565b60405180910390fd5b814261038191906114a2565b6006819055508060065461039591906114a2565b6007819055506001600860006101000a81548160ff0219169083151502179055505050565b60055481565b600654421015610405576040517f08c379a00000000000000000000000000000000000000000000000000000000081526004016103fc90611548565b60405180910390fd5b6007544210610449576040517f08c379a0000000000000000000000000000000000000000000000000000000008152600401610440906115b4565b60405180910390fd5b6000801b600360003373ffffffffffffffffffffffffffffffffffffffff1673ffffffffffffffffffffffffffffffffffffffff16815260200190815260200160002060000154036104d0576040517f08c379a00000000000000000000000000000000000000000000000000000000081526004016104c790611620565b60405180910390fd5b600360003373ffffffffffffffffffffffffffffffffffffffff1673ffffffffffffffffffffffffffffffffffffffff168152602001908152602001600020600001548282604051602001610526929190611682565b604051602081830303815290604052805190602001201461057c576040517f08c379a0000000000000000000000000000000000000000000000000000000008152600401610573906116fa565b60405180910390fd5b81600360003373ffffffffffffffffffffffffffffffffffffffff1673ffffffffffffffffffffffffffffffffffffffff168152602001908152602001600020600101819055505050565b60036020528060005260406000206000915090508060000154908060010154905082565b600460009054906101000a900473ffffffffffffffffffffffffffffffffffffffff1681565b610619610c69565b6106236000610cf0565b565b60606106316001610db4565b905090565b60008060009054906101000a900473ffffffffffffffffffffffffffffffffffffffff16905090565b60065481565b61066d610c69565b6007544210156106b2576040517f08c379a00000000000000000000000000000000000000000000000000000000081526004016106a99061178c565b60405180910390fd5b60006106be6001610dd5565b116106fe576040517f08c379a00000000000000000000000000000000000000000000000000000000081526004016106f5906117f8565b60405180910390fd5b600061070a6001610dd5565b424460405160200161071d929190611818565b6040516020818303038152906040528051906020012060001c6107409190611873565b90506000807fffffffffffffffffffffffffffffffffffffffffffffffffffffffffffffffff905060005b6107756001610dd5565b811015610829576000610792826001610dea90919063ffffffff16565b90506000600360008373ffffffffffffffffffffffffffffffffffffffff1673ffffffffffffffffffffffffffffffffffffffff16815260200190815260200160002060010154905060008682116107f55781876107f091906118a4565b610802565b868261080191906118a4565b5b905084811015610813578094508295505b5050508080610821906118d8565b91505061076b565b5081600460006101000a81548173ffffffffffffffffffffffffffffffffffffffff021916908373ffffffffffffffffffffffffffffffffffffffff1602179055508173ffffffffffffffffffffffffffffffffffffffff166108fc479081150290604051600060405180830381858888f193505050501580156108b1573d6000803e3d6000fd5b508173ffffffffffffffffffffffffffffffffffffffff167f1d4c260f1824cd028e6c9e6e31c3a0b94f2513e7a641113ec759d382f9bdd5a160405160405180910390a260005b6109026001610dd5565b81101561098757600061091f826001610dea90919063ffffffff16565b9050600360008273ffffffffffffffffffffffffffffffffffffffff1673ffffffffffffffffffffffffffffffffffffffff1681526020019081526020016000206000808201600090556001820160009055505050808061097f906118d8565b9150506108f8565b505b60006109956001610dd5565b11156109c9576109c36109b360006001610dea90919063ffffffff16565b6001610e0490919063ffffffff16565b50610989565b6000600860006101000a81548160ff021916908315150217905550505050565b60075481565b600860009054906101000a900460ff1681565b6005543414610a46576040517f08c379a0000000000000000000000000000000000000000000000000000000008152600401610a3d9061196c565b60405180910390fd5b6006544210610a8a576040517f08c379a0000000000000000000000000000000000000000000000000000000008152600401610a81906119d8565b60405180910390fd5b6000801b600360003373ffffffffffffffffffffffffffffffffffffffff1673ffffffffffffffffffffffffffffffffffffffff1681526020019081526020016000206000015414610b11576040517f08c379a0000000000000000000000000000000000000000000000000000000008152600401610b0890611a44565b60405180910390fd5b60405180604001604052808281526020016000815250600360003373ffffffffffffffffffffffffffffffffffffffff1673ffffffffffffffffffffffffffffffffffffffff1681526020019081526020016000206000820151816000015560208201518160010155905050610b91336001610e3490919063ffffffff16565b503373ffffffffffffffffffffffffffffffffffffffff167fb88a3406200dc3d36bb684691325c24b6706e35b7fb36857ceff3fabf8bd0cf582604051610bd89190611a64565b60405180910390a250565b610beb610c69565b600073ffffffffffffffffffffffffffffffffffffffff168173ffffffffffffffffffffffffffffffffffffffff1603610c5d5760006040517f1e4fbdf7000000000000000000000000000000000000000000000000000000008152600401610c549190611298565b60405180910390fd5b610c6681610cf0565b50565b610c71610e64565b73ffffffffffffffffffffffffffffffffffffffff16610c8f610636565b73ffffffffffffffffffffffffffffffffffffffff1614610cee57610cb2610e64565b6040517f118cdaa7000000000000000000000000000000000000000000000000000000008152600401610ce59190611298565b60405180910390fd5b565b60008060009054906101000a900473ffffffffffffffffffffffffffffffffffffffff169050816000806101000a81548173ffffffffffffffffffffffffffffffffffffffff021916908373ffffffffffffffffffffffffffffffffffffffff1602179055508173ffffffffffffffffffffffffffffffffffffffff168173ffffffffffffffffffffffffffffffffffffffff167f8be0079c531659141344cd1fd0a4f28419497f9722a3daafe3b4186f6b6457e060405160405180910390a35050565b60606000610dc483600001610e6c565b905060608190508092505050919050565b6000610de382600001610ec8565b9050919050565b6000610df98360000183610ed9565b60001c905092915050565b6000610e2c836000018373ffffffffffffffffffffffffffffffffffffffff1660001b610f04565b905092915050565b6000610e5c836000018373ffffffffffffffffffffffffffffffffffffffff1660001b611018565b905092915050565b600033905090565b606081600001805480602002602001604051908101604052809291908181526020018280548015610ebc57602002820191906000526020600020905b815481526020019060010190808311610ea8575b50505050509050919050565b600081600001805490509050919050565b6000826000018281548110610ef157610ef0611a7f565b5b9060005260206000200154905092915050565b6000808360010160008481526020019081526020016000205490506000811461100c576000600182610f3691906118a4565b9050600060018660000180549050610f4e91906118a4565b9050808214610fbd576000866000018281548110610f6f57610f6e611a7f565b5b9060005260206000200154905080876000018481548110610f9357610f92611a7f565b5b90600052602060002001819055508387600101600083815260200190815260200160002081905550505b85600001805480610fd157610fd0611aae565b5b600190038181906000526020600020016000905590558560010160008681526020019081526020016000206000905560019350505050611012565b60009150505b92915050565b60006110248383611088565b61107d578260000182908060018154018082558091505060019003906000526020600020016000909190919091505582600001805490508360010160008481526020019081526020016000208190555060019050611082565b600090505b92915050565b600080836001016000848152602001908152602001600020541415905092915050565b600080fd5b6000819050919050565b6110c3816110b0565b81146110ce57600080fd5b50565b6000813590506110e0816110ba565b92915050565b600080604083850312156110fd576110fc6110ab565b5b600061110b858286016110d1565b925050602061111c858286016110d1565b9150509250929050565b61112f816110b0565b82525050565b600060208201905061114a6000830184611126565b92915050565b6000819050919050565b61116381611150565b811461116e57600080fd5b50565b6000813590506111808161115a565b92915050565b6000806040838503121561119d5761119c6110ab565b5b60006111ab858286016110d1565b92505060206111bc85828601611171565b9150509250929050565b600073ffffffffffffffffffffffffffffffffffffffff82169050919050565b60006111f1826111c6565b9050919050565b611201816111e6565b811461120c57600080fd5b50565b60008135905061121e816111f8565b92915050565b60006020828403121561123a576112396110ab565b5b60006112488482850161120f565b91505092915050565b61125a81611150565b82525050565b60006040820190506112756000830185611251565b6112826020830184611126565b9392505050565b611292816111e6565b82525050565b60006020820190506112ad6000830184611289565b92915050565b600081519050919050565b600082825260208201905092915050565b6000819050602082019050919050565b6112e8816111e6565b82525050565b60006112fa83836112df565b60208301905092915050565b6000602082019050919050565b600061131e826112b3565b61132881856112be565b9350611333836112cf565b8060005b8381101561136457815161134b88826112ee565b975061135683611306565b925050600181019050611337565b5085935050505092915050565b6000602082019050818103600083015261138b8184611313565b905092915050565b60008115159050919050565b6113a881611393565b82525050565b60006020820190506113c3600083018461139f565b92915050565b6000602082840312156113df576113de6110ab565b5b60006113ed84828501611171565b91505092915050565b600082825260208201905092915050565b7f50726576696f757320726f756e64206973207374696c6c206f6e676f696e672e600082015250565b600061143d6020836113f6565b915061144882611407565b602082019050919050565b6000602082019050818103600083015261146c81611430565b9050919050565b7f4e487b7100000000000000000000000000000000000000000000000000000000600052601160045260246000fd5b60006114ad826110b0565b91506114b8836110b0565b92508282019050808211156114d0576114cf611473565b5b92915050565b7f5468652072657665616c20706861736520686173206e6f74207374617274656460008201527f2e00000000000000000000000000000000000000000000000000000000000000602082015250565b60006115326021836113f6565b915061153d826114d6565b604082019050919050565b6000602082019050818103600083015261156181611525565b9050919050565b7f5468652072657665616c2070686173652068617320656e6465642e0000000000600082015250565b600061159e601b836113f6565b91506115a982611568565b602082019050919050565b600060208201905081810360008301526115cd81611591565b9050919050565b7f4e6f20636f6d6d69746d656e7420666f756e642e000000000000000000000000600082015250565b600061160a6014836113f6565b9150611615826115d4565b602082019050919050565b60006020820190508181036000830152611639816115fd565b9050919050565b6000819050919050565b61165b611656826110b0565b611640565b82525050565b6000819050919050565b61167c61167782611150565b611661565b82525050565b600061168e828561164a565b60208201915061169e828461166b565b6020820191508190509392505050565b7f496e76616c69642072657665616c2e0000000000000000000000000000000000600082015250565b60006116e4600f836113f6565b91506116ef826116ae565b602082019050919050565b60006020820190508181036000830152611713816116d7565b9050919050565b7f5468652072657665616c207068617365206973206e6f74206f7665722079657460008201527f2e00000000000000000000000000000000000000000000000000000000000000602082015250565b60006117766021836113f6565b91506117818261171a565b604082019050919050565b600060208201905081810360008301526117a581611769565b9050919050565b7f4e6f20706c617965727320696e207468652067616d652e000000000000000000600082015250565b60006117e26017836113f6565b91506117ed826117ac565b602082019050919050565b60006020820190508181036000830152611811816117d5565b9050919050565b6000611824828561164a565b602082019150611834828461164a565b6020820191508190509392505050565b7f4e487b7100000000000000000000000000000000000000000000000000000000600052601260045260246000fd5b600061187e826110b0565b9150611889836110b0565b92508261189957611898611844565b5b828206905092915050565b60006118af826110b0565b91506118ba836110b0565b92508282039050818111156118d2576118d1611473565b5b92915050565b60006118e3826110b0565b91507fffffffffffffffffffffffffffffffffffffffffffffffffffffffffffffffff820361191557611914611473565b5b600182019050919050565b7f496e636f7272656374207469636b65742070726963652e000000000000000000600082015250565b60006119566017836113f6565b915061196182611920565b602082019050919050565b6000602082019050818103600083015261198581611949565b9050919050565b7f54686520636f6d6d69742070686173652068617320656e6465642e0000000000600082015250565b60006119c2601b836113f6565b91506119cd8261198c565b602082019050919050565b600060208201905081810360008301526119f1816119b5565b9050919050565b7f416c726561647920636f6d6d69747465642e0000000000000000000000000000600082015250565b6000611a2e6012836113f6565b9150611a39826119f8565b602082019050919050565b60006020820190508181036000830152611a5d81611a21565b9050919050565b6000602082019050611a796000830184611251565b92915050565b7f4e487b7100000000000000000000000000000000000000000000000000000000600052603260045260246000fd5b7f4e487b7100000000000000000000000000000000000000000000000000000000600052603160045260246000fdfea2646970667358221220ceae3562119d78e6a6a4b300d7954b9cad62e652ee017e879d1f6657adb57e8964736f6c63430008140033",
  "linkReferences": {},
  "deployedLinkReferences": {}
}